:020000040800F2
:10000000403D00206D020008A56B000893580008D1
:10001000A16B0008C106000879A6000800000000D6
:10002000000000000000000000000000117900083E
:100030005B120008000000009574000813790008A6
:10004000870200088702000887020008870200086C
:10005000870200088702000887020008870200085C
:10006000870200088702000887020008B110000814
:1000700087020008C110000887020008D11000089C
:10008000E1100008F110000887020008870200084C
:10009000870200088702000887020008870200081C
:1000A000870200088702000887020008870200080C
:1000B00087020008870200088702000887020008FC
:1000C00087020008A95800089958000841750008DF
:1000D00087020008870200082991000887020008AB
:1000E00087020008870200088702000887020008CC
:1000F0008702000887020008870200080111000833
:1001000087020008870200088702000887020008AB
:100110004D8A0008618A000875820008870200087D
:100120001111000821110008870200083111000890
:10013000870200080000000000000000870200089D
:10014000870200088702000887020008870200086B
:100150008702000841110008870200083D9100084D
:10016000870200088702000887020008870200084B
:10017000870200088702000800000000000000005D
:10018000870200088702000800F002F800F05EF81D
:100190000AA090E8000C82448344AAF10107DA45E2
:1001A00001D100F053F8AFF2090EBAE80F0013F0D6
:1001B000010F18BFFB1A43F001031847A4450100C3
:1001C000C44501000A444FF0000C10F8013B13F045
:1001D000070408BF10F8014B1D1108BF10F8015BA0
:1001E000641E05D010F8016B641E01F8016BF9D193
:1001F00013F0080F1EBF10F8014BAD1C0C1B09D1EA
:100200006D1E58BF01F801CBFAD505E014F8016B5B
:1002100001F8016B6D1EF9D59142D6D370470000ED
:100220000023002400250026103A28BF78C1FBD8FF
:10023000520728BF30C148BF0B6070471FB514F08C
:10024000A0F800F0C0F81FBD10B510BD00F056F9C1
:100250001146FFF7F3FF13F0CFF800F074F903B481
:10026000FFF7F2FF03BC00F079F90000094880476E
:1002700009480047FEE7FEE7FEE7FEE7FEE7FEE788
:10028000FEE7FEE7FEE7FEE704480549054A064BA0
:1002900070470000D179000889010008403700202C
:1002A000403D0020403900204039002053EA020C34
:1002B00000F069802DE9F04B4FF00006002B1FBFC6
:1002C000B3FA83F503FA05F424FA05F65E4012BF8B
:1002D0001643B2FA82F502FA05F4C5F120051EBFF5
:1002E00022FA05FC44EA0C04203556EA044C4FEA95
:1002F000144418BF641C4FF000084FF000099042EE
:1003000071EB030C39D3002919BFB1FA81F701FA57
:1003100007F6B0FA80F700FA07F6C7F120071EBF0C
:1003200020FA07FC46EA0C062037B6FBF4FCA7EBE4
:100330000507103F07F01F0BCBF120060CFA0BFB53
:100340002CFA06F644BFB3460026202FA4BF5E4613
:100350004FF0000B5BEA060C08BF4FF0010B19EBE6
:100360000B09ABFB027C48EB0608C01B06FB02CC6A
:100370000BFB03CC71EB0C01C1E70B460246414677
:100380004846BDE8F08B13B54FF000004FF0000178
:10039000AFF30080BDE81C40704700000B4910B56A
:1003A000A1F17C020A4CC2E93712372106E000EBCA
:1003B000104342F82130074B00FB03400B1EA1F114
:1003C0000101F4DC10BD0120E8E7000074360020D4
:1003D000E119D666CD0D010010B5203AC0F00B80B2
:1003E000B1E81850203AA0E81850B1E81850A0E839
:1003F0001850BFF4F5AF5FEA027C24BFB1E8185093
:10040000A0E8185044BF18C918C0BDE810405FEA02
:10041000827C24BF51F8043B40F8043B08BF70477E
:10042000D20728BF31F8023B48BF11F8012B28BF83
:1004300020F8023B48BF00F8012B70474FF0000244
:100440000429C0F0128010F0030C00F01B80CCF1E6
:10045000040CBCF1020F18BF00F8012BA8BF20F854
:10046000022BA1EB0C0100F00DB85FEAC17C24BFA8
:1004700000F8012B00F8012B48BF00F8012B704752
:100480004FF0000200B5134694469646203922BF2D
:10049000A0E80C50A0E80C50B1F12001BFF4F7AF78
:1004A000090728BFA0E80C5048BF0CC05DF804EB5A
:1004B000890028BF40F8042B08BF704748BF20F8C8
:1004C000022B11F0804F18BF00F8012B70477047C6
:1004D0007047704710B500F009F8006810BD10B5FE
:1004E000044600F003F8046010BD000000487047A7
:1004F000DC36002000487047DC3600207546FFF7E8
:10050000F9FFAE4605006946534620F007008546D0
:1005100018B020B5FFF7B8FEBDE820404FF0000648
:100520004FF000074FF000084FF0000B21F00701DB
:10053000AC46ACE8C009ACE8C009ACE8C009ACE81E
:10054000C0098D46704710B50446AFF300802046C1
:10055000BDE81040FFF783BE704700000149182036
:10056000ABBEFEE72600020010B509F053FF09F00C
:100570006DFB08F03DFF09F0D1F909F0C7FF07F066
:1005800031FA044612E00CF063F909F0E9F908F0D9
:10059000EDFD002009F0E2FF002008F041FF0548D2
:1005A00009F01EFA002009F083FB641E002CEAD13A
:1005B00010BD0000291E002010B502F097FD80F04C
:1005C0005A342046FFF7EAFE00F0F8F807F098FEEC
:1005D00009F033FB08F004FF09F098F909F08EFFE9
:1005E00009F07CFB08F032FF0AF012F808F0B0FDC9
:1005F0000821064804F0C8FB0C21044804F0C4FBA1
:1006000012F06AFE12F0E8FB10BD00002419002071
:100610002448007800062349497840EA01402149EE
:10062000897840EA01201F49C9780843C0F398102F
:100630001D490860084600681C49086008460068B3
:100640001B4908601848006800EE100AB8EE400A1E
:10065000DFED180A20EE200A174880ED000A114845
:100660000078FF2815D10F484078FF2811D10D4898
:100670008078FF280DD10B48C078FF2809D10F489A
:1006800090F8230020F0080008300C4981F823007E
:1006900007E00A4890F8230020F00800074981F895
:1006A00023007047D81E00203000002034000020B6
:1006B00038000020000034373C000020291E0020B4
:1006C00000BFFEE72DE9F04104460D46164600271F
:1006D000204600F053FA07467D600A2C01DBBDE896
:1006E000F08106B9FBE70A2C23D2DFE804F02205EB
:1006F000060C0D13191F20211CE0324639460F4805
:1007000000F078FA16E015E0324639460C4800F061
:1007100071FA0FE0324639460A4800F06BFA09E0F8
:1007200032463946084800F065FA03E002E001E08D
:1007300000E000BF00BF00BFD1E70000441A002066
:10074000B4190020FC1900208C1A0020014600205A
:100750000A2900DB70470A2923D2DFE801F02205CD
:10076000060C0D13191F20211CE01048002280F8F0
:100770003020C28416E015E00D48002280F83020B9
:10078000C2840FE00B48002280F83020C28409E0C8
:100790000948002280F83020C28403E002E001E032
:1007A00000E000BF00BF00BFD4E700003020002001
:1007B000D82100200C2300204024002010B58022E6
:1007C0001D491E4804F0D6FF1C4800F0B7FA8020EF
:1007D0001B494883184808601A48486080221A4913
:1007E0001A4804F0C7FF194800F0A8FA80201849F9
:1007F0004883154808601748486080221649174802
:1008000004F0B8FF154800F099FA80201449488395
:10081000114808601348486080221349134804F0C7
:10082000A9FF124800F08AFA8020114948830E4837
:1008300008601048486010BD64200020441A002061
:1008400030200020E42000200C220020B4190020D9
:10085000D82100208C22002040230020FC190020F9
:100860000C230020C0230020742400208C1A0020B8
:1008700040240020F424002070B504460D4616469E
:100880000CB105B106B970BD204600F00DFA204646
:1008900000F060FA40B1204600F050FA06480068C7
:1008A000401C05490860EEE732462946204600F024
:1008B00077FA00BFE7E700001C0100202DE9F043B4
:1008C000A1B00746894600240A2F03DB002021B08F
:1008D000BDE8F083384600F051F9044656E0204662
:1008E00006F0E5FD032801DA0020F0E7E06881B2B8
:1008F000204606F0D0FD94F82110884204D0012152
:10090000204606F0FDFD41E02168E068401C00F053
:100910007F000D5C204606F0CAFD0646AE4201DBB4
:10092000782E01DD0020D2E74FF00008002009E01A
:10093000E2682168024402F07F02895C01AA115436
:10094000411CC8B2691E8142F2DC681E81B201A856
:1009500009F084FE00F0FF08E0682844401E81B2E0
:10096000204606F098FD404509D009480068401C23
:10097000074908600121204606F0C2FD06E02A462C
:100980004946204606F0A3FD0120A0E7A7E70000A6
:10099000400100202DE9F0470746884600240A2F31
:1009A00002DAB8F1000F02D10020BDE8F087384626
:1009B00000F0E4F8044614B1A08C032801D2002012
:1009C000F3E7A58C50E0204606F071FDA84201DA5D
:1009D0000020EAE7E06881B2204606F05CFD94F86A
:1009E0002110884204D00121204606F089FD3BE019
:1009F0004FF00009012609E0E068304481B220464A
:100A000006F049FD80EA0909701C86B2681EB042F2
:100A1000F2D8E0682844401E81B2204606F03BFD33
:100A2000484504D00121204606F06AFD1CE094F8F8
:100A3000230010B994F8220078B1E0682844401EE1
:100A400081B2204606F027FD94F82310884204D096
:100A50000121204606F054FD06E02A464146204684
:100A600006F035FD2846A0E7ADE700002DE9F0438C
:100A7000A1B00746894600240A2F03DB002021B0DD
:100A8000BDE8F083384600F079F8044652E020468D
:100A900006F00DFD032801DA0020F0E7E06881B2DE
:100AA000204606F0F8FC94F82110884204D0012179
:100AB000204606F025FD3DE00825204606F0F7FC1F
:100AC0000646AE4201DB782E01DD0020D7E74FF06D
:100AD000000800200AE02268E1680144491C01F096
:100AE0007F01515C01AA1154411CC8B2691E8142A8
:100AF000F1DCA81E81B201A809F0B0FD00F0FF08EA
:100B0000E0682844401E81B2204606F0C4FC4045FF
:100B100009D009480068401C0749086001212046A7
:100B200006F0EEFC06E02A464946204606F0CFFCD9
:100B30000120A4E7ABE70000400100202DE9F041CF
:100B400007460D461646984600240A2F01DBBDE8ED
:100B5000F081384600F012F8044604B9F7E728128D
:100B600004F8200F65703012A070E670A4F80480BD
:100B700000202074203C00BFE9E7000001460A463F
:100B80000020022A06D0042A06D0052A06D0062A0A
:100B900008D105E0054807E0054805E0054803E001
:100BA000054801E0002000BF00BF70473020002052
:100BB000D82100200C2300204024002008B5026822
:100BC0001268C2F30012A2B14A8BC36B1B685B6848
:100BD000D21A8A60CA69521CCA6100220A8500BF03
:100BE000009202681268009202685268009200BF88
:100BF00000BF08BD70B505460C4616460DB104B1E0
:100C000006B970BD95F84100202805D00E4800684F
:100C1000401C0D490860F4E7012084F830000020F2
:100C2000E08432462846616804F0BCFD50B10748B4
:100C30000068401C05490860002084F83000284600
:100C400000F040F900BFDCE72C010020300100205B
:100C500010B50446022C03D10B490C48FFF7AEFF38
:100C6000042C03D10A490B48FFF7A8FF052C03D138
:100C700009490A48FFF7A2FF062C03D10849094891
:100C8000FFF79CFF10BD000030200020441A002018
:100C9000D8210020B41900200C230020FC190020CA
:100CA000402400208C1A00200CB508B1016801B95D
:100CB0000CBD00BF00210091016809680091016826
:100CC0004968009100BF00BF00BF0021009101688A
:100CD0000968009101684968009100BF00BF00BF2A
:100CE000002100910168096800910168496800913C
:100CF00000BF00BF00BF002100910168096800919A
:100D000001684968009100BF00BF0168096801914E
:100D100001684968019100BF01680968C1F30011C9
:100D200051B100BF0021009101680968009101687C
:100D30004968009100BF00BF00BFB9E708B1016872
:100D400001B970470168C96841F010010268D160BB
:100D500000BFF6E7014619B1086808B1C86B08B9C9
:100D60000020704791F84200222801D00020F8E7C7
:100D70000868406900F0400008B90020F1E7C86B3E
:100D80000068006800F0010008B90020E9E7C86BBE
:100D900090F83500022801D00020E2E70120E0E7CA
:100DA0002DE9F04104460F4690462CB1206818B159
:100DB00017B1B8F1000F02D10120BDE8F081206821
:100DC000406920F0400021684861E06B002848D06D
:100DD000E06B90F8350002280AD1E06B01F026FEA6
:100DE00005469DB134480068401C334908600DE059
:100DF000E06B0068006800F0010038B1E06B00684B
:100E0000006820F00100E16B0968086002F06EF9EB
:100E100006460AE002F06AF9801B0A2805D926482E
:100E20000068401C2449086006E0E06B0068006828
:100E300000F001000028EDD100BFE06B90F8340015
:100E4000012805D100BF0020E16B81F8340000BF0C
:100E5000E06B90F83500012803D00120E16B81F8A8
:100E60003500202084F842002046FFF71DFF42464F
:100E70003946204604F07EFC054635B10F4800682F
:100E8000401C0E490860284697E72046FFF756FFAA
:100E90002068406900F0400030B908480068401CF4
:100EA00006490860012088E705480068401C04499D
:100EB0000860002081E700002801002024010020B4
:100EC0002001002070B504460CB1206800B970BD47
:100ED0002068406920F0800021684861A06BE0B381
:100EE000A06B90F83500022803D1A06B01F09EFDA5
:100EF0000DE0A06B0068006800F0010038B1A06B45
:100F00000068006820F00100A16B0968086002F029
:100F1000EDF8054605E002F0E9F8401B0A2800D983
:100F200006E0A06B0068006800F001000028F2D124
:100F300000BFA06B90F83400012805D100BF00204D
:100F4000A16B81F8340000BFA06B90F83500012838
:100F500003D00120A16B81F835006FF040002168BB
:100F60000860202084F8410003480068401C0249C2
:100F7000086000BFABE700003401002010B508494D
:100F8000084800F01DF80849084800F019F8084919
:100F9000084800F015F80849084800F011F810BD9D
:100FA00030200020441A0020D8210020B41900204D
:100FB0000C230020FC190020402400208C1A002063
:100FC00070B505460C4605B104B970BD94F8300003
:100FD000012802D1E08C401CE084E08C03280AD375
:100FE0000020E08484F8300095F84100202802D0E9
:100FF0002846FFF767FF00BFE7E7000010B52DEDBB
:10100000048B2048006812F05DFD41EC190B9FED48
:101010001E0B53EC102B12F0A5FD41EC180B12F037
:1010200089FA1B4908600846006813F039F941EC59
:10103000190B9FED180B53EC102B12F093FD41ECA4
:10104000180B12F077FA15490860084690ED000A6F
:10105000DFED130A30EE600A10EE101A084613F0A6
:101060001FF941EC190B9FED0F0B53EC102B12F0F5
:1010700079FD41EC180B12F05DFA0C490860BDECEB
:10108000048B10BDF00100209A9999999999B93F64
:10109000F40100203F80C9999CC9E93FF801002074
:1010A0000040CE4436CB6EF0C1078F3F4401002094
:1010B00010B5024801F028FD10BD0000941B00206F
:1010C00010B5024801F020FD10BD0000D41A002028
:1010D00010B5024801F018FD10BD0000341B0020BF
:1010E00010B5024801F010FD10BD0000541C002096
:1010F00010B5024801F008FD10BD0000B41C00202E
:1011000010B5024801F000FD10BD0000F41B0020E6
:1011100010B5024801F0F8FC10BD00006418002072
:1011200010B5024801F0F0FC10BD0000141D0020B5
:1011300010B5024801F0E8FC10BD0000C418002002
:1011400010B5024801F0E0FC10BD0000741D002045
:101150000146087810381823B0FBF3F20848805C89
:10116000C865032A05D908686FF30900001D886562
:1011700003E008686FF309008865886D7047000018
:1011800086440108014600208A6A8B69CBB932B1D6
:10119000012A0DD0022A03D0032A10D10EE000BF8D
:1011A000CB6A03F08073B3F1807F00D1012007E0A8
:1011B000CB6AB3F1C07F00D1012001E000E000BFA5
:1011C00034E08B69B3F5005F1AD132B1012A07D040
:1011D000022A03D0032A11D10AE000BF01200EE049
:1011E000CB6A03F08073B3F1807F00D1012006E069
:1011F000CB6AB3F1C07F00D1012000E000BF15E051
:1012000032B1012A05D0022A04D0032A0CD103E00E
:1012100000BF00BF012008E0CB6A03F08073B3F188
:10122000807F00D1012000E000BF00BF704730B5D3
:101230000468246824F4802405682C6004686360D2
:101240008468402C04D10468A2600468E16003E073
:101250000468A1600468E26030BD704772B600BFE8
:10126000FEE7000010B52DED0A8BF0EE408AB0EEDF
:10127000608AB0EE419AF0EE619A5E4800680028FC
:101280007DD118EE100A13F00BF841EC1C0B53EC57
:101290001C2B9FED590B51EC100B12F039FA41EC5D
:1012A0001A0B18EE900A12F0FBFF41EC1B0B53ECEB
:1012B0001A2B12F0FDFD13D818EE100A12F0F0FFF1
:1012C00041EC1B0B53EC1B2B9FED4B0B51EC100B0C
:1012D00012F01EFA41EC1A0B12F02CF908EE900AEB
:1012E00018EE900A12F0DCFF41EC1B0B9FED440B53
:1012F00053EC102B12F036FC41EC1A0B12F01AF9D9
:10130000414908600846D0ED000AB0EE001A81EEAF
:10131000200A30EE080A3D4880ED000A006812F00D
:10132000BFFF41EC1B0B53EC1B2B9FED390B51EC1A
:10133000100B12F0EDF941EC1A0B12F0FBF83649E4
:10134000C1F8C401084690ED710A10EE101A084663
:1013500012F0A6FF41EC1B0B9FED300B53EC102B52
:1013600012F000FC41EC1A0B12F0E4F82A49C1F823
:10137000C0012548D0ED000AB0EE001A00E012E0EE
:1013800081EE200A30EE480A2048D0ED000A80EEB7
:10139000201A084680ED731AB7EE000A80ED720A33
:1013A0000120144908601C4890ED360A80ED370A88
:1013B00080ED369A90ED380A80ED390A90ED730A87
:1013C000D0ED390A20EE200AD0ED700A90ED361AE1
:1013D00000EE810AD0ED710A90ED371A00EE810A15
:1013E00080ED380A90ED380A20EE290ABDEC0A8B10
:1013F00010BD000034170020000000000000D03FA6
:101400001F85EB51B81E1940381700203C170020EB
:1014100000000000000000C0F033002000000000C9
:101420000000F0BF10B52DED108B86B00446F0EE35
:10143000408AB0EE608AB0EE419AF0EE619AFE48C2
:10144000006800287ED118EE100A12F029FF41EC46
:101450001C0B53EC1C2B9FEDF90B51EC100B12F0F5
:1014600057F941EC1A0B18EE900A12F019FF41ECF3
:101470001B0B53EC1A2B12F01BFD13D818EE100A9D
:1014800012F00EFF41EC1B0B53EC1B2B9FEDEB0BF3
:1014900051EC100B12F03CF941EC1A0B12F04AF827
:1014A00008EE900A18EE900A12F0FAFE41EC1B0BBF
:1014B0009FEDE40B53EC102B12F054FB41EC1A0B94
:1014C00012F038F8E1490860022C01DD022402E044
:1014D000012C00DA0124012C59D1DC48D0ED000A9E
:1014E000B0EE001A81EE200A30EE080AD84880EDEE
:1014F000000A9FEDD80AD84880ED7A0AD4480068DF
:1015000012F0CEFE41EC1B0B53EC1B2B9FEDD30BCB
:1015100051EC100B12F0FCF841EC1A0B12F00AF827
:10152000CD49C1F8E401084690ED790A10EE101A91
:10153000084612F0B5FE41EC1B0B9FEDCA0B53ECB5
:10154000102B00E001E112F00DFB41EC1A0B11F041
:10155000F1FFC149C1F8E0019FEDBE0A084680EDE8
:101560007D0ABA48D0ED000AB0EE001A81EE200ADA
:1015700030EE480AB648D0ED000A80EE201A084640
:1015800080ED7C1AB7EE000A80ED7B0ADAE0AF4806
:1015900090ED000A20EE000A20EE080A20EE080A6C
:1015A00010EE101A084612F07BFE41EC1B0B18EEF1
:1015B000100A12F075FECDE90401A448006812F08B
:1015C0006FFE41EC1F0B9FEDA90B53EC102B12F09B
:1015D000C9FA41EC1E0B9DED040B53EC102B12F0DD
:1015E000C1FA41EC1D0B9FEDA30B53EC102B11F036
:1015F000D3FF41EC1C0B53EC1B2B11F0CDFF41EC46
:101600001A0B11F097FF9D490860904890ED000A71
:1016100020EE000AF0EE000A20EE200A20EE480A32
:101620000846D0ED000A80EE201A8B4880ED7A1A29
:101630009FED880A80ED790A90ED7A0A10EE101A73
:10164000084612F02DFE41EC1B0B9FED860B53EC70
:10165000102B12F087FA41EC1A0B11F06BFF7E4948
:10166000C1F8E0018548006812F01AFECDE90201D8
:10167000764890ED000A20EE000A20EE080A20EEDF
:10168000080A10EE101A084612F00AFE41EC1B0B75
:1016900018EE100A12F004FE41EC1D0B6B480068B6
:1016A00012F0FEFD41EC1E0B9FED700B53EC102B66
:1016B00012F058FA41EC1F0B53EC1D2B12F052FAAA
:1016C00041EC1C0B53EC1B2B12F000FD9FED690B42
:1016D00053EC102BCDE900019DED000B51EC100BEC
:1016E00012F0F4FC41EC1A0B9DED020B53EC102BA5
:1016F00012F00EF8CDE904019DED040B51EC100B36
:1017000011F018FF5449C1F8F401504890ED000A57
:10171000F0EE000A20EE200AD0ED000A20EE200AAA
:1017200060EE080AB2EE000A00EEC80A5348D0ED97
:10173000000A80EE201A084680ED7C1AB7EE000AF7
:1017400080ED7B0A01203C490860434890ED440B42
:1017500080ED460B90ED420B80ED440B80ED429BFB
:1017600090ED4A0B80ED4C0B90ED480B80ED4A0B51
:1017700090ED7A0A10EE101A084612F091FD41EC35
:101780001A0B354890ED461BB0EE410AF0EE610AA7
:1017900053EC102B51EC1A0B12F0E4F9CDE90401D3
:1017A0002D4890ED790A10EE101A084612F078FDD7
:1017B00041EC1B0B284890ED441BB0EE410AF0EEC3
:1017C000610A53EC102B51EC1B0B12F0CBF941ECDE
:1017D0001A0B214890ED780A10EE101A084612F004
:1017E0005FFD41EC1C0B1C4890ED421BB0EE410A22
:1017F000F0EE610A53EC102B51EC1C0B12F0B2F915
:1018000041EC1B0B144890ED7D0A10EE101A0846AF
:1018100012F046FD41EC1E0B0F4890ED4C1BB0EE54
:10182000410AF0EE610A53EC102B51EC1E0B12F042
:1018300099F941EC1C0B23E0A417002000000000E4
:101840000000D03F1F85EB51B81E1940A81700209B
:10185000AC17002000000000F03300200000000062
:10186000000000C0000000000000F0BF39B4C876DE
:10187000BE9F06400000000000001040B01700208E
:10188000214890ED7C0A10EE101A084612F008FD6F
:1018900041EC1E0B1C4890ED4A1BB0EE410AF0EEE5
:1018A000610A53EC102B51EC1E0B12F05BF941EC6A
:1018B0001D0B53EC1C2B11F06FFE53EC1B2BCDE9D1
:1018C00000019DED000B51EC100B11F065FE41EC99
:1018D0001F0B53EC1A2B11F05FFECDE902019DEDB9
:1018E000040B53EC102B9DED020B51EC100B11F07F
:1018F00053FE054A02F5907203C2034890ED480B6F
:1019000006B0BDEC108B10BDF033002010B52DEDEE
:10191000108B86B00446F0EE408AB0EE608AB0EEDE
:1019200041FAF0EE61FAEF48006800287ED118EE27
:10193000100A12F0B5FC41EC1B0B53EC1B2B9FED76
:10194000EA0B51EC100B11F0E3FE41EC190B18EE11
:10195000900A12F0A5FC41EC1A0B53EC192B12F073
:10196000A7FA13D818EE100A12F09AFC41EC1A0BE1
:1019700053EC1A2B9FEDDC0B51EC100B11F0C8FE51
:1019800041EC190B11F0D6FD08EE900A18EE900A02
:1019900012F086FC41EC1A0B9FEDD50B53EC102B8B
:1019A00012F0E0F841EC190B11F0C4FDD2490860C7
:1019B000032C01DD032402E0012C00DA0124012CB8
:1019C00038D1CD48D0ED000AB0EE001A81EE200AE1
:1019D00030EE080AC94880ED000A9FEDC90AC948DF
:1019E00080ED5A0AC54890ED000AC8EE000AC548C5
:1019F000C0ED590A90ED590A80ED580A9FEDC00AD2
:101A000080ED5D0ABC48D0ED000AB0EE001A81EE10
:101A1000200A30EE480AB948D0ED000A80EE201ABC
:101A2000B84880ED5C1AB7EE000A00E018E180EDDE
:101A30005B0A12E1022C7DD1AF4890ED000A20EE46
:101A4000000A20EE080A20EE080A10EE101A0846D6
:101A500012F026FC41EC1A0B18EE100A12F020FCD2
:101A600041EC1C0BA448006812F01AFC41EC1E0B60
:101A70009FEDA50B53EC102B12F074F841EC1D0BED
:101A800053EC1C2B12F06EF89FEDA10B53EC102BB6
:101A9000CDE904019DED040B51EC100B11F07CFD20
:101AA00041EC1B0B53EC1A2B11F076FD41EC190B9A
:101AB00011F040FD984908608F4890ED000A20EE33
:101AC000000A20EE080A20EE080A0846D0ED000AB7
:101AD00080EE201A8B4880ED5A1A90ED5A0AF0EEEB
:101AE000000A20EE200A80ED590A90ED5A0A80ED96
:101AF000580A0846006812F0D3FB41EC1D0B7E48E3
:101B000090ED000A20EE000A20EE080A20EE080AF6
:101B100010EE101A084612F0C3FB41EC1A0B18EE37
:101B2000100A12F0BDFBCDE900017348006812F005
:101B3000B7FB00E050E041EC1C0B9FED730B53EC46
:101B4000102B12F00FF841EC1B0B9DED000B53EC2A
:101B5000102B12F007F853EC1A2BCDE902019DED82
:101B6000020B51EC100B12F0B1FA41EC190B9FED86
:101B7000680B53EC102B12F0A9FA41EC1E0B53EC3E
:101B80001D2B11F0C5FDCDE904019DED040B51ECB9
:101B9000100B11F0CFFC5B49C1F87401564890ED71
:101BA000000AF0EE000A20EE200AD0ED000A20EE36
:101BB000200A60EE080AB2EE000A00EEC80A564893
:101BC000D0ED000A80EE201A084680ED5C1AB7EED0
:101BD000000A80ED5B0A40E04748D0ED000AB0EE15
:101BE000001A81EE200A30EE080A444880ED000A0F
:101BF0009FED430A434880ED5A0A3F48D0ED000A62
:101C0000B8EE001A81EE200A3C48D0ED000A80EEC2
:101C1000201A3C4880ED591A90ED590AFFEE000A4F
:101C200020EE200A80ED580A9FED350A80ED5D0A0E
:101C30003148D0ED000AB0EE001A81EE200A30EEF5
:101C4000480A2E48D0ED000A80EE201A2D4880ED7B
:101C50005C1AB7EE000A80ED5B0A0120214908609A
:101C60001CB9284880ED09FA32E0264890ED070AB1
:101C700080ED080A90ED060A80ED070A80ED06FA6D
:101C800090ED0A0A80ED0B0A90ED090A80ED0A0A30
:101C900090ED5C0AD0ED0A0A20EE200AD0ED5D0A34
:101CA00090ED0B1A00EE810AD0ED580A90ED061A5D
:101CB00000EE810AD0ED590A90ED071A00EE810A74
:101CC000D0ED5A0A90ED081A00EE810A80ED090A5B
:101CD0000C4890ED090A20EE2F0A06B0BDEC108BDF
:101CE00010BD0000E8160020000000000000D03FFA
:101CF0001F85EB51B81E1940EC160020F01600208D
:101D000000000000F033002039B4C876BE9F0640C2
:101D10000000000000001040F416002010B52DED6A
:101D20000A8BF0EE408AB0EE608AB0EE419A5D48D0
:101D3000006800287DD118EE100A12F0B1FA41ECCB
:101D40001C0B53EC1C2B9FED580B51EC100B11F09E
:101D5000DFFC41EC1A0B18EE900A12F0A1FA41ECEC
:101D60001B0B53EC1A2B12F0A3F813D818EE100A21
:101D700012F096FA41EC1B0B53EC1B2B9FED4A0B18
:101D800051EC100B11F0C4FC41EC1A0B11F0D2FB1A
:101D900008EE900A18EE900A12F082FA41EC1B0B42
:101DA0009FED430B53EC102B11F0DCFE41EC1A0BB2
:101DB00011F0C0FB404908600846D0ED000AB0EEC3
:101DC000001A81EE200A30EE080A3C4880ED000A35
:101DD000006812F065FA41EC1B0B53EC1B2B9FEDD6
:101DE000380B51EC100B11F093FC41EC1A0B11F075
:101DF000A1FB3549C1F8D401084690ED750A10EEF3
:101E0000101A084612F04CFA41EC1B0B9FED2F0BF9
:101E100053EC102B11F0A6FE41EC1A0B11F08AFBCB
:101E20002949C1F8D0012448D0ED000AB0EE001ACB
:101E300000E012E081EE200A30EE480A1F48D0EDA3
:101E4000000A80EE201A084680ED771AB7EE000AE5
:101E500080ED760A0120134908601B4890ED3E0A88
:101E600080ED3F0A80ED3E9A90ED400A80ED410AF8
:101E700090ED770AD0ED410A20EE200AD0ED740AE9
:101E800090ED3E1A00EE810AD0ED750A90ED3F1AF2
:101E900000EE810A80ED400A90ED400ABDEC0A8B0D
:101EA00010BD000040170020000000000000D03FDF
:101EB0001F85EB51B81E1940441700204817002019
:101EC00000000000000000C0F0330020000000000F
:101ED0000000F0BF10B52DED0A8BF0EE408AB0EE99
:101EE000608AB0EE419A5D48006800287DD118EE06
:101EF000100A12F0D5F941EC1C0B53EC1C2B9FED92
:101F0000580B51EC100B11F003FC41EC1A0B18EEBE
:101F1000900A12F0C5F941EC1B0B53EC1A2B11F08F
:101F2000C7FF13D818EE100A12F0BAF941EC1B0BD8
:101F300053EC1B2B9FED4A0B51EC100B11F0E8FBFF
:101F400041EC1A0B11F0F6FA08EE900A18EE900A1E
:101F500012F0A6F941EC1B0B9FED430B53EC102B39
:101F600011F000FE41EC1A0B11F0E4FA4049086050
:101F70000846D0ED000AB0EE001A81EE200A30EEDD
:101F8000080A3C4880ED000A006812F089F941EC2B
:101F90001B0B53EC1B2B9FED380B51EC100B11F06E
:101FA000B7FB41EC1A0B11F0C5FA3549C1F83C01F9
:101FB000084690ED4F0A10EE101A084612F070F91C
:101FC00041EC1B0B9FED2F0B53EC102B11F0CAFDB6
:101FD00041EC1A0B11F0AEFA2949C1F83801244836
:101FE000D0ED000AB0EE001A00E012E081EE200A07
:101FF00030EE480A1F48D0ED000A80EE201A08464D
:1020000080ED511AB7EE000A80ED500A0120134905
:1020100008601B4890ED1E0A80ED1F0A80ED1E9A95
:1020200090ED200A80ED210A90ED510AD0ED210AB1
:1020300020EE200AD0ED4E0A90ED1E1A00EE810A25
:10204000D0ED4F0A90ED1F1A00EE810A80ED200AB4
:1020500090ED200ABDEC0A8B10BD0000AC160020EC
:10206000000000000000D03F1F85EB51B81E194052
:10207000B0160020B416002000000000000000C0D0
:1020800070320020000000000000F0BF10B52DED00
:10209000108B86B00446F0EE408AB0EE608AB0EE57
:1020A00041FAE048006800287ED118EE100A12F0CC
:1020B000F7F841EC1B0B53EC1B2B9FEDDB0B51ECAA
:1020C000100B11F025FB41EC190B18EE900A12F0E1
:1020D000E7F841EC1A0B53EC192B11F0E9FE13D879
:1020E00018EE100A12F0DCF841EC1A0B53EC1A2B24
:1020F0009FEDCD0B51EC100B11F00AFB41EC190BCD
:1021000011F018FA08EE900A18EE900A12F0C8F8CA
:1021100041EC1A0B9FEDC60B53EC102B11F022FD76
:1021200041EC190B11F006FAC3490860022C01DDDD
:10213000022402E0012C00DA0124012C59D1BE480E
:10214000D0ED000AB0EE001A81EE200A30EE080A47
:10215000BA4880ED000A9FEDBA0ABA4880ED580AE5
:10216000B648006812F09CF841EC1A0B53EC1A2B9D
:102170009FEDB50B51EC100B11F0CAFA41EC190BA5
:1021800011F0D8F9AF49C1F85C01084690ED570A43
:1021900010EE101A084612F083F841EC1A0B9FED6E
:1021A000AC0B53EC102B00E003E111F0DBFC41EC35
:1021B000190B11F0BFF9A349C1F858019FEDA00A0E
:1021C000084680ED5B0A9C48D0ED000AB0EE001A8C
:1021D00081EE200A30EE480A9848D0ED000A80EEE1
:1021E000201A084680ED5A1AB7EE000A80ED590A07
:1021F000DCE0914890ED000A20EE000A20EE080A8B
:1022000020EE080A10EE101A084612F049F841ECC8
:102210001A0B18EE100A12F043F841EC1D0B864819
:10222000006812F03DF89FED8C0B53EC102BCDE9BC
:1022300004019DED040B51EC100B11F093FC41ECEB
:102240001E0B53EC1D2B11F08DFC41EC1C0B9FED74
:10225000840B53EC102B11F09FF941EC1B0B53EC4A
:102260001A2B11F099F941EC190B11F063F97E4921
:102270000860714890ED000A20EE000AF0EE000AB6
:1022800020EE200A20EE480A0846D0ED000A80EE33
:10229000201A6C4880ED581A9FED690A80ED570AA4
:1022A00090ED580A10EE101A084611F0F9FF41ECB3
:1022B0001A0B9FED670B53EC102B11F053FC41EC04
:1022C000190B11F037F95F49C1F8580166480068E9
:1022D00011F0E6FF41EC1E0B574890ED000A20EE8E
:1022E000000A20EE080A20EE080A10EE101A08462E
:1022F00011F0D6FFCDE9000118EE100A11F0D0FF61
:1023000041EC1B0B4C48006811F0CAFF41EC1D0B5F
:102310009FED510B53EC102B11F024FC41EC1C0BE6
:1023200053EC1B2B11F01EFC41EC1A0B9DED000B26
:1023300053EC102B11F0CAFE41EC190B9FED480B2A
:1023400053EC102B11F0C2FE53EC1E2BCDE9020111
:102350009DED020B51EC100B11F0DAF9CDE90401FF
:102360009DED040B51EC100B11F0E4F83549C1F868
:102370006C01314890ED000AF0EE000A20EE200AD0
:10238000D0ED000A20EE200A60EE080AB2EE000A44
:1023900000EEC80A3448D0ED000A80EE201A084644
:1023A00080ED5A1AB7EE000A80ED590A01201D4946
:1023B0000860244890ED270A80ED280A90ED260A4F
:1023C00080ED270A80ED26FA90ED2A0A80ED2B0A8F
:1023D00090ED290A80ED2A0A90ED5A0AD0ED2A0ADA
:1023E00020EE200AD0ED5B0A90ED2B1A00EE810A58
:1023F000D0ED560A90ED261A00EE810AD0ED570A6C
:1024000090ED271A00EE810AD0ED580A90ED281AB7
:1024100000EE810A80ED290A90ED290A06B0BDEC94
:10242000108B10BDC4160020000000000000D03F3B
:102430001F85EB51B81E1940C8160020CC1600208D
:10244000000000007032002000000000000000C00A
:10245000000000000000F0BF39B4C876BE9F0640FF
:102460000000000000001040D016002010B52DED37
:10247000108B86B00446F0EE408AB0EE608AB0EE73
:1024800041FAEE48006800287ED118EE100A11F0DB
:1024900007FF41EC1B0B53EC1B2B9FEDE90B51ECA1
:1024A000100B11F035F941EC190B18EE900A11F0F0
:1024B000F7FE41EC1A0B53EC192B11F0F9FC13D871
:1024C00018EE100A11F0ECFE41EC1A0B53EC1A2B2B
:1024D0009FEDDB0B51EC100B11F01AF941EC190BCD
:1024E00011F028F808EE900A18EE900A11F0D8FEC4
:1024F00041EC1A0B9FEDD40B53EC102B11F032FB77
:1025000041EC190B11F016F8D1490860032C01DDDC
:10251000032402E0002C00DA0024012C38D1CC483E
:10252000D0ED000AB0EE001A81EE200A30EE080A63
:10253000C84880ED000A9FEDC80AC84880ED380AF7
:10254000C44890ED000AC8EE000AC448C0ED370A3E
:1025500090ED370A80ED360A9FEDBF0A80ED3B0A09
:10256000BB48D0ED000AB0EE001A81EE200A30EE32
:10257000480AB848D0ED000A80EE201AB74880ED2E
:102580003A1AB7EE000A00E018E180ED390A12E1CC
:10259000022C7DD1AE4890ED000A20EE000A20EE1C
:1025A000080A20EE080A10EE101A084611F078FE0C
:1025B00041EC1A0B18EE100A11F072FE41EC1D0BE3
:1025C000A348006811F06CFE9FEDA50B53EC102B97
:1025D000CDE904019DED040B51EC100B11F0C2FA92
:1025E00041EC1E0B53EC1D2B11F0BCFA41EC1C0B03
:1025F0009FED9D0B53EC102B10F0CEFF41EC1B0B0D
:1026000053EC1A2B10F0C8FF41EC190B10F092FF9D
:10261000974908608E4890ED000A20EE000A20EEEF
:10262000080A20EE080A0846D0ED000A80EE201ABB
:102630008A4880ED381A90ED380AF0EE000A20EE54
:10264000200A80ED370A90ED380A80ED360A0846F8
:10265000006811F025FE41EC1E0B7D4890ED000A4C
:1026600020EE000A20EE080A20EE080A10EE101AEA
:10267000084611F015FECDE9000118EE100A11F020
:102680000FFE41EC1B0B7248006811F009FE00E0E0
:1026900050E041EC1D0B9FED720B53EC102B11F031
:1026A00061FA41EC1C0B53EC1B2B11F05BFA41EC73
:1026B0001A0B9DED000B53EC102B11F007FD41ECB4
:1026C000190B9FED690B53EC102B11F0FFFC53EC31
:1026D0001E2BCDE902019DED020B51EC100B11F008
:1026E00017F8CDE904019DED040B51EC100B10F02F
:1026F00021FF5A49C1F8EC00554890ED000AF0EE70
:10270000000A20EE200AD0ED000A20EE200A60EE3A
:10271000080AB2EE000A00EEC80A5548D0ED000AD9
:1027200080EE201A084680ED3A1AB7EE000A80EDD6
:10273000390A40E04648D0ED000AB0EE001A81EEBA
:10274000200A30EE080A434880ED000A9FED420A55
:10275000424880ED380A3E48D0ED000AB8EE001A33
:1027600081EE200A3B48D0ED000A80EE201A3B485B
:1027700080ED371A90ED370AFFEE000A20EE200AAE
:1027800080ED360A9FED340A80ED3B0A3048D0EDEB
:10279000000AB0EE001A81EE200A30EE480A2D48F9
:1027A000D0ED000A80EE201A2C4880ED3A1AB7EEE0
:1027B000000A80ED390A0120204908601CB9274829
:1027C00080ED09FA32E0254890ED070A80ED080A0D
:1027D00090ED060A80ED070A80ED06FA90ED0A0AF0
:1027E00080ED0B0A90ED090A80ED0A0A90ED3A0A95
:1027F000D0ED0A0A20EE200AD0ED3B0A90ED0B1A2C
:1028000000EE810AD0ED360A90ED061A00EE810A3C
:10281000D0ED370A90ED071A00EE810AD0ED380AA4
:1028200090ED081A00EE810A80ED090A0B4890ED40
:10283000090A06B0BDEC108B10BD00006016002028
:10284000000000000000D03F1F85EB51B81E19406A
:10285000641600206816002000000000703200207E
:1028600039B4C876BE9F064000000000000010404A
:102870006C16002010B52DED0A8BF0EE408AB0EEFC
:10288000608AB0EE419A5D48006800287DD118EE5C
:10289000100A11F005FD41EC1C0B53EC1C2B9FEDB5
:1028A000580B51EC100B10F033FF41EC1A0B18EEE3
:1028B000900A11F0F5FC41EC1B0B53EC1A2B11F0B4
:1028C000F7FA13D818EE100A11F0EAFC41EC1B0BD2
:1028D00053EC1B2B9FED4A0B51EC100B10F018FF23
:1028E00041EC1A0B10F026FE08EE900A18EE900A42
:1028F00011F0D6FC41EC1B0B9FED430B53EC102B5E
:1029000011F030F941EC1A0B10F014FE4049086048
:102910000846D0ED000AB0EE001A81EE200A30EE33
:10292000080A3C4880ED000A006811F0B9FC41EC4F
:102930001B0B53EC1B2B9FED380B51EC100B10F0C5
:10294000E7FE41EC1A0B10F0F5FD3549C1F84C01DA
:10295000084690ED530A10EE101A084611F0A0FC3C
:1029600041EC1B0B9FED2F0B53EC102B11F0FAF8E1
:1029700041EC1A0B10F0DEFD2949C1F8480124484A
:10298000D0ED000AB0EE001A00E012E081EE200A5D
:1029900030EE480A1F48D0ED000A80EE201A0846A3
:1029A00080ED551AB7EE000A80ED540A0120134954
:1029B00008601B4890ED220A80ED230A80ED229AE0
:1029C00090ED240A80ED250A90ED550AD0ED250AF8
:1029D00020EE200AD0ED520A90ED221A00EE810A74
:1029E000D0ED530A90ED231A00EE810A80ED240AFF
:1029F00090ED240ABDEC0A8B10BD0000B816002033
:102A0000000000000000D03F1F85EB51B81E1940A8
:102A1000BC160020C016002000000000000000C00E
:102A200070320020000000000000F0BF70B50446C6
:102A3000A56D00F05BFB064694F83500022808D02F
:102A40008020606500BF002084F8340000BF0120B2
:102A500070BD2068006820F01600216808602068BA
:102A6000406920F0800021684861206C08B9A06CA2
:102A700028B12068006820F00800216808602068FC
:102A8000006820F001002168086010E000F02EFBD3
:102A9000801B05280BD920206065032084F83500B1
:102AA00000BF002084F8340000BF0320D0E7206876
:102AB000006800F001000028E8D194F85C103F2085
:102AC0008840A860012084F8350000BF002084F809
:102AD000340000BF00BFBBE7014691F83500022873
:102AE00003D08020486501207047052081F835001B
:102AF0000868006820F001000A6810600020F3E711
:102B0000014691F835007047F8B504460020009062
:102B10008C4800684FF41651B0FBF1F7A56D2E6894
:102B200094F85C1008208840304098B12068006814
:102B300000F0040070B12068006820F004002168F3
:102B4000086094F85C1008208840A860606D40F030
:102B50000100606594F85C1001208840304068B145
:102B60002068406900F0800040B194F85C100120BA
:102B70008840A860606D40F00200606594F85C10C9
:102B800004208840304068B12068006800F00200EE
:102B900040B194F85C1004208840A860606D40F05B
:102BA0000400606594F85C1010208840304078B3D1
:102BB0002068006800F0080050B394F85C10102002
:102BC0008840A8602068006800F4802080B12068F8
:102BD000006800F4002028B9206CC8B12046216CA0
:102BE000884715E0A06C98B12046A16C88470FE09B
:102BF0002068006800F4807028B92068006820F020
:102C0000080021680860206C10B12046216C8847BC
:102C100094F85C10202088403040002865D020685F
:102C2000006800F0100000285FD094F85C102020AD
:102C30008840A86094F83500052828D120680068ED
:102C400020F01600216808602068406920F08000AC
:102C500021684861206C08B9A06C28B12068006820
:102C600020F008002168086094F85C103F2088403C
:102C7000A860012084F8350000BF002084F83400EB
:102C800000BF206D10B12046216D8847F8BD206837
:102C9000006800F4802080B12068006800F4002003
:102CA00028B9606C10B12046616C88471DE0E06B6C
:102CB000D8B12046E16B884717E02068006800F42F
:102CC000807068B92068006820F0100021680860F2
:102CD000012084F8350000BF002084F8340000BFD4
:102CE000E06B10B12046E16B8847606D38B3606DD2
:102CF00000F00100F0B1052084F83500206800687C
:102D000020F001002168086000BF0098401C00907E
:102D1000B84200D905E02068006800F001000028F2
:102D2000F3D100BF012084F8350000BF002084F8F3
:102D3000340000BFE06C10B12046E16C884700BF52
:102D4000A4E700000C0000202DE9F0410446002516
:102D500000F0CCF9074614B90120BDE8F081606AA3
:102D600000B100BF022084F8350000BF002084F8C5
:102D7000340000BF2068006820F00100216808606E
:102D80000AE000F0B3F9C01B052805D920206065D2
:102D9000032084F83500E0E72068006800F00100B7
:102DA0000028EED12068056821480540D4E90101DA
:102DB0000843E16808432169084361690843A16940
:102DC0000843E1690843216A08430543606A04280F
:102DD00003D1D4E90B01084305432068056020684E
:102DE000456925F00705606A0543606A04280DD12E
:102DF000A06A0543E06A48B12046FEF7C3F928B14E
:102E000040206065012084F83500A6E72068456110
:102E10002046FEF79DF9064694F85C103F20884056
:102E2000B06000206065012084F83500002094E740
:102E30003F8010F02DE9F04704460D4616461F4628
:102E40004FF00008D4F8589000BF94F834000128DF
:102E500002D10220BDE8F087012084F8340000BFD1
:102E600094F83500012825D1022084F8350000208F
:102E700060653B46324629462046FEF7D8F994F86D
:102E80005C103F208840C9F808002068006840F0C6
:102E9000160021680860206C28B12068006840F0A6
:102EA0000800216808602068006840F0010021687F
:102EB000086006E000BF002084F8340000BF4FF037
:102EC00002084046C6E70000F8B502460B4600255A
:102ED000002400200021D6E0012606FA01F51E6834
:102EE00006EA0504AC4274D11E7906F00306012EF1
:102EF00004D01E7906F00306022E13D190684F000D
:102F00000326BE40B0434F00DE68BE4030439060B1
:102F1000506801268E40B0431E79C6F300168E40DD
:102F2000304350601E7906F00306032E09D0D068A6
:102F30004F000326BE40B0434F009E68BE40304362
:102F4000D0601E7906F00306022E13D1CF0802F1DD
:102F5000200656F827004E07F70E0F26BE40B04356
:102F60004F07FF0E1E69BE403043CF0802F1200616
:102F700046F8270010684F000326BE40B0431E7974
:102F800006F003064F00BE40304310605E6806F452
:102F90004036002E76D000BF002600963C4E3668A4
:102FA00046F480463A4F3E603E46366806F4804618
:102FB000009600BF00BF374E8F0856F827008E07D7
:102FC000370F0F26BE40B043334EB24202D1002627
:102FD00024E057E0314EB24201D101261EE0304ECE
:102FE000B24201D1022619E02E4EB24201D103268F
:102FF00014E02D4EB24201D104260FE02B4EB24216
:1030000001D105260AE02A4EB24201D1062605E08A
:10301000284EB24201D1072600E008268F073F0F55
:10302000BE4030431B4E8F0846F82700224E3068C2
:10303000A0435E6806F4801606B120431E4E306041
:10304000361D3068A0435E6806F4001606B12043C2
:10305000194E361D3060184E361F3068A0435E682A
:1030600006F4003606B12043134E361F3060361F7B
:103070003068A0435E6806F4803606B120430E4EE9
:10308000083E3060491C1029FFF426AFF8BD00004F
:103090004438024008380140000002400004024069
:1030A00000080240000C02400010024000140240E0
:1030B00000180240001C0240083C0140024613690F
:1030C0000B400BB1012000E00020704710B54269B1
:1030D00021EA020302EA010443EA0443836110BDCA
:1030E0000AB1816101E00B04836170470148006807
:1030F0007047000000000020704770472DE9F84F2E
:103100000446206847692068D0F80480002594F8B8
:103110003E90C7F3002040B1C8F3002028B145F02D
:1031200001056FF4807021684861C7F3402040B109
:10313000C8F3002028B145F002056FF40070216843
:103140004861C7F3802070B3C8F3002058B3CA4663
:10315000B4F82AB094F83D60206B0090BAF1200FCB
:103160000FD1BBF1000F0CD1212E06D0292E04D097
:10317000282E06D10098212803D1204603F070F9AB
:1031800011E06FF480602168486145F00405B9F1F1
:10319000100F02D0B9F1400F05D12068006840F44B
:1031A000007021680860C7F3C02040B1C8F3002058
:1031B00028B145F008056FF40060216848612DB121
:1031C000206C28432064204602F00AFCBDE8F88FFA
:1031D0002DE9F04705464FF0000928684668D5F804
:1031E0002CA095F83E7095F83D80102F01D0402F0F
:1031F00075D12868D0F818902868446904F0010057
:1032000060B9BAF52A0F02D0BAF12A4F01D10120D4
:1032100000E00020012801D1BDE8F08704F00100A2
:1032200048B1C6F3402030B1284602F045FB28469D
:1032300002F0CBFFB7E0C4F3C00030B1C6F34020CA
:1032400018B1284602F078FEADE0C4F3400030B17A
:10325000C6F3402018B1284602F083FEA3E0C9F36C
:10326000800040B32868406800F40060B0F5006F4B
:10327000E0D0C4F3C01048B1C6F3802030B1C4F32D
:10328000800018B9284602F0EBFD8CE0C4F3800002
:103290000028CFD0C6F340200028CBD0B8F1210FB2
:1032A00003D1284602F08CFD7DE0402F7BD12846DB
:1032B00002F0DAFF77E02868406800F40060B0F5BB
:1032C000006F70D0C4F3801050B1C6F3802038B1C5
:1032D000C4F3800020B9284602F0F0FC63E00BE064
:1032E000C4F3800000285ED0C6F3402000285AD0E6
:1032F000284602F04BFC56E0286C10B1286844695F
:1033000004E02868D0F8189028684469C4F34000A5
:1033100060B1C6F3402048B1286C10B12868D0F8DD
:1033200018904946284603F062F83CE0C4F30010C8
:1033300030B1C6F3402018B1284603F0E5F832E07A
:10334000B8F1210F02D0B8F1290F16D1C4F3C01083
:1033500048B1C6F3802030B1C4F3800018B92846C4
:1033600003F022F81FE0C4F38000E0B1C6F3402070
:10337000C8B1284603F00BF815E0C4F3801048B13B
:10338000C6F3802030B1C4F3800018B9284602F09B
:10339000DBFF08E0C4F3800028B1C6F3402010B181
:1033A000284602F0C4FF00BF36E7704770B50446F8
:1033B0000CB9012070BD94F83D0028B9002084F8B4
:1033C0003C00204600F0E0F8242084F83D0020680E
:1033D000006820F00100216808602068006840F45F
:1033E0000040216808602068006820F400402168DF
:1033F000086000F0C1FA05465C496068884206D85A
:103400005B48854201D2012007E0002005E05948D1
:10341000854201D2012000E00020012800D1C9E747
:103420005548B5FBF0F62068406820F03F00304377
:10343000216848604D496068884201D8701C07E0E7
:103440004FF4967070434FF47A71B0FBF1F0401C6A
:103450002168096A21F03F01084321680862434955
:103460006068884214D8681E61684900B0FBF1F0BA
:10347000401CC0F30B00042801D204203DE0681E6C
:1034800061684900B0FBF1F0401CC0F30B0034E070
:10349000A06838B9681E616801EB4101B0FBF1F02A
:1034A000401C0AE0681E616801EBC10202EB0111D9
:1034B000B0FBF1F0401C40F48040C0F30B0008B9B1
:1034C00001201AE0A06848B9681E616801EB41015B
:1034D000B0FBF1F0401CC0F30B000CE0681E61680B
:1034E00001EBC10202EB0111B0FBF1F0401CC0F393
:1034F0000B0040F4804040F400402168C9694CF65C
:10350000FF72914308432168C861D4E90701084369
:103510002168096821F0C001084321680860D4E9E6
:10352000031008432168896848F2FF329143084339
:1035300021688860D4E9050108432168C96821F041
:10354000FF0108432168C8602068006840F001005E
:103550002168086000202064202084F83D000020BD
:10356000206384F83E0000BF24E70000A08601002D
:1035700080841E0000093D0040420F0070477047E4
:10358000704770477047000010B586B0044614219C
:1035900001A8FCF775FF23492068884240D100BF8D
:1035A000002000902048006840F002001E4908609A
:1035B0000846006800F00200009000BF00BF4FF412
:1035C000406001901220029000200390032004909C
:1035D0000420059001A91548FFF776FC00BF0020E4
:1035E000009011481030006840F480000E491031FE
:1035F00008600846006800F48000009000BF00BF2B
:1036000000221146212000F09DF8212000F086F8CC
:1036100000221146222000F095F8222000F07EF8CA
:1036200006B010BD0058004030380240000402408F
:103630007047704703480068034909780844014906
:1036400008607047000000200800002010B50D48F9
:10365000006840F400700B4908600846006840F4B8
:10366000806008600846006840F4807008600320AD
:1036700000F0A6F80F2000F007F800F02BF800206B
:1036800010BD0000003C024070B504460E480078B2
:103690004FF47A71B1FBF0F00C490968B1FBF0F519
:1036A000284600F0D5FF08B1012070BD102C07D2CC
:1036B00000222146501E00F045F80548046001E054
:1036C0000120F2E70020F0E7080000200C000020B5
:1036D0000400002008B500BF002000900E480068DC
:1036E00040F480400C4908600846006800F48040BF
:1036F000009000BF00BF00BF00200090081F0068BE
:1037000040F08050091F08600846006800F08050B3
:10371000009000BF00BF08BD443802400146084683
:1037200000280DDB00BF00BF00F01F0301229A40FC
:1037300043099B0003F1E023C3F8002100BF00BF51
:1037400000BF70472DE9F05F80460D461646002702
:1037500006F0C0FF074639462A46334601F0070007
:10376000C0F1070ABAF1040F02D94FF0040A01E0D0
:10377000C0F1070AD14600F1040ABAF1070F02D2DC
:103780004FF0000A01E0A0F1030AD4464FF0010A0D
:103790000AFA09FAAAF1010A0AEA020A0AFA0CFA72
:1037A0004FF0010B0BFA0CFBABF1010B0BEA030B17
:1037B0004AEA0B042146404606F094FFBDE8F09F1C
:1037C00000BF00F00702064B19684FF6FF031940CF
:1037D000044B0B4343EA0221014B196000BF7047C1
:1037E0000CED00E00000FA0570B504460D460CB97A
:1037F000012070BD5848006800F00700A84209D2B7
:1038000055490D700846006800F00700A84201D035
:103810000120EEE7207800F0020002281DD1207878
:1038200000F00400042805D14C48006840F4E05042
:103830004A490860207800F00800082805D1474868
:10384000006840F46040454908604448006820F042
:10385000F000A168084341490860207800F00100A9
:10386000A8B36068012807D13C4808380068C0F355
:103870004040B8B90120BCE76068022802D0606807
:10388000032807D1354808380068C0F3406048B9BC
:103890000120AEE7314808380068C0F3400008B99D
:1038A0000120A6E72D48006820F003006168084366
:1038B0002A490860FFF71AFC064609E0FFF716FCE4
:1038C000801B41F28831884202D9032091E707E04A
:1038D0002248006800F00C006168B0EB810FEDD168
:1038E0001D48006800F00700A84209D91A490D7068
:1038F0000846006800F00700A84201D0012078E7E0
:10390000207800F00400042807D11448006820F44F
:10391000E050E168084311490860207800F0080091
:10392000082808D10D48006820F46040216940EA69
:10393000C1000A49086000F03FF808490968C1F36E
:103940000311074A515CC8400649086006480068F0
:10395000FFF79AFE00204CE7003C02400838024086
:103960008E4401080C00002004000020014800687B
:10397000704700000C00002000B5FFF7F7FF044976
:103980000968C1F38221034A515CC84000BD0000B0
:10399000083802409E44010800B5FFF7E7FF0449DC
:1039A0000968C1F34231034A515CC84000BD0000C0
:1039B000083802409E4401082DE9F0470024002504
:1039C0000026A1462548006800F00C0020B104281C
:1039D00005D008283AD105E0DFF8849039E0DFF817
:1039E000849036E01D48001F006800F03F041B482B
:1039F000001F006800F4800078B11A481749091FB9
:103A00000968C1F38811A0FB01700146224600231A
:103A10003846FCF74BFC05460EE011480F49091FDC
:103A20000968C1F38811A0FB0170014622460023FA
:103A30003846FCF73BFC05460848001F0068C0F309
:103A40000140401C4600B5FBF6F902E0DFF810909B
:103A500000BF00BF4846BDE8F087000008380240BC
:103A60000024F4000050C300F8B504460CB901204E
:103A7000F8BD207800F00100002874D0F9480068F3
:103A800000F00C0004280DD0F648006800F00C008F
:103A9000082813D1F348001F006800F48000B0F537
:103AA000800F0BD1EF4808380068C0F34040002871
:103AB00059D06068002856D10120D9E700BF60685E
:103AC000B0F5803F08D1E7480838006840F48030FE
:103AD000E449083908601EE06068B0F5A02F0DD1F8
:103AE000E0480838006840F48020DE490839086062
:103AF0000846006840F4803008600CE0D948083877
:103B0000006820F48030D74908390860084600680A
:103B100020F48020086000BF606890B1FFF7E6FAEB
:103B2000054606E0FFF7E2FA401B642801D90320AE
:103B30009EE7CC4808380068C0F340400028F1D028
:103B400011E0FFF7D3FA054606E0FFF7CFFA401B76
:103B5000642801D903208BE7C24808380068C0F305
:103B600040400028F1D1207800F0020002285FD107
:103B7000BC48006800F00C0058B1BA48006800F07A
:103B80000C0008281CD1B748001F006800F4800012
:103B9000B0B9B44808380068C0F3400020B1E0680C
:103BA000012801D0012063E7AE480838006820F002
:103BB000F800216940EAC100AA490839086037E0E5
:103BC000E06800B30120A8490860FFF78FFA0546B6
:103BD00006E0FFF78BFA401B022801D9032047E7D4
:103BE000A04808380068C0F340000028F1D09D4884
:103BF0000838006820F0F800216940EAC1009949BE
:103C00000839086014E0002097490860FFF76EFA51
:103C1000054606E0FFF76AFA401B022801D9032097
:103C200026E7904808380068C0F340000028F1D12A
:103C3000207800F0080008282CD16069A8B1012084
:103C40008A490860FFF752FA054606E0FFF74EFA88
:103C5000401B022801D903200AE782486C30006823
:103C6000C0F340000028F1D014E000207F49086034
:103C7000FFF73CFA054606E0FFF738FA401B02283A
:103C800001D90320F4E677486C300068C0F34000A7
:103C90000028F1D1207800F00400042870D100271A
:103CA00070483830006800F0805090B900BF0020A4
:103CB00000906C483830006840F0805069493831D5
:103CC00008600846006800F08050009000BF00BF08
:103CD00001276748006800F48070B0B96448006844
:103CE00040F4807062490860FFF700FA054606E07C
:103CF000FFF7FCF9401B022801D90320B8E65C4815
:103D0000006800F480700028F2D000BFA06801288D
:103D100008D154486830006840F0010051496831CA
:103D200008601DE0A06805280DD14E486830006885
:103D300040F004004B49683108600846006840F0D4
:103D4000010008600CE047486830006820F001007E
:103D50004449683108600846006820F004000860A3
:103D600000BFA068A8B1FFF7C1F9054609E0FFF759
:103D7000BDF9401B41F28831884202D9032077E621
:103D800026E0384868300068C0F340000028EED0D4
:103D900013E0FFF7ABF9054608E0FFF7A7F9401B72
:103DA00041F28831884201D9032061E62D4868300C
:103DB0000068C0F340000028EFD1012F07D1294847
:103DC0003830006820F0805026493831086000BF44
:103DD000A069002845D02348006800F00C0008289E
:103DE0005DD0A069022845D100201F490866FFF771
:103DF0007DF9054606E0FFF779F9401B022801D955
:103E0000032035E6174808380068C0F340600028F2
:103E1000F1D1D4E907010843616A40EA8111012226
:103E2000A06AC2EB500041EA00412C20005D41EA4B
:103E300000600C49091F086001200B490866FFF764
:103E400055F9054606E0FFF751F9401B022801D954
:103E500003200DE6034808380068C0F340600028DE
:103E6000F1D049E00838024000004742800E474246
:103E700000700040002021490866FFF737F9054629
:103E800006E0FFF733F9401B022801D90320EFE5D4
:103E90001B480068C0F340600028F2D12CE0A06904
:103EA000012800D1E4E51648001D0668A069012834
:103EB00020D006F48001E06981421BD106F03F0169
:103EC000206A814216D147F6C0703040616AB0EB7B
:103ED000811F0FD106F440310122A06AC2EB5000CD
:103EE000B1EB004F06D106F070612C20005DB1EB04
:103EF000006F01D00120BBE50020B9E5000047427A
:103F0000003802403EB50446002557480068182195
:103F1000B0FBF1F04FF47A71B0FBF1F0642148434B
:103F20000190019802902068406820F020002168EC
:103F300048602068406800F08000802813D14B481A
:103F4000606400BF029820B9606D40F04000606579
:103F500006E00298401E029094F851000728F1D123
:103F600000BF019802902068406800F0400040289F
:103F700013D13F48206400BF029820B9606D40F023
:103F80004000606506E00298401E029094F85100DF
:103F90000728F1D100BF019802902068406800F026
:103FA0000200022822D1A06C00B30020A16C086599
:103FB000A06CFEF73BFD08B14020606520684068BA
:103FC00020F002002168486000BF029820B9606DAF
:103FD00040F04000606508E00298401E02902068B2
:103FE000806800F002000028EFD000BF2068406821
:103FF00000F00100B0B1E06CA0B10020E16C0865F8
:10400000E06CFEF713FD08B1402060652068006891
:1040100020F04000216808602068406820F001001E
:10402000216848600020E087E086606D402801D16B
:10403000012501E00020606500BF0020009020689D
:10404000C068009020688068009000BF00BF00BF7B
:104050000020009020688068009000BF00BF012011
:1040600084F8510028463EBD0C000020C1750008B0
:104070005175000870470000F8B50446206846688E
:1040800020688568C5F3801048B905F0010030B19B
:10409000C6F3801018B12046216C8847F8BDC5F3DF
:1040A000400030B1C6F3C01018B12046616C88479B
:1040B000F4E7C5F3401030B9C5F3801018B9C5F363
:1040C000002000287CD0C6F3401000287DD0C5F326
:1040D0008010F0B194F8510003280ED0606D40F0CC
:1040E0000400606500BF002000902068C068009058
:1040F00020688068009000BF0BE000BF00200090A7
:104100002068C068009020688068009000BF00BFF1
:10411000C4E7C5F3401088B1606D40F001006065F0
:1041200000BF002000902068806800902068006830
:1041300020F040002168086000BF00BFC5F30020E8
:1041400058B1606D40F00800606500BF002000902D
:1041500020688068009000BF00BF606D78B3206861
:10416000406820F0E00021684860012084F8510098
:1041700006F00200022802D006F0010008B3206811
:10418000406820F0030021684860E06C50B110489E
:10419000E16C0865E06CFEF79FFC18B1606D40F0C3
:1041A00040006065A06C50B10948A16C0865A06C26
:1041B000FEF792FC18B1606D40F04000606503E0CE
:1041C00003E02046FFF756FF68E700BF66E7000000
:1041D000E175000810B504460CB9012010BD606AF5
:1041E00038B96068B0F5827F00D105E00021E16157
:1041F00002E00021216161610021A16294F8510077
:1042000028B9002084F85000204600F047F802202A
:1042100084F851002068006820F0400021680860A0
:10422000A08800F48270218901F404410843A18927
:1042300001F400610843217C01F002010843217D63
:1042400001F001010843218B01F400710843217F33
:1042500001F0380108432021095D01F08001084385
:10426000218D01F400510843216808600421A069F0
:1042700001EA104094F8241001F01001084321686D
:1042800048602068C06920F400602168C86100208F
:104290006065012084F8510000209FE710B586B0CA
:1042A0000446142101A8FCF7EBF83D492068884238
:1042B00073D100BF002000903A48006840F480505D
:1042C000384908600846006800F48050009000BF3C
:1042D00000BF00BF0020009032481438006840F052
:1042E00001003049143908600846006800F00100F8
:1042F000009000BF00BFE02001900220029000204B
:104300000390032004900520059001A92648FEF79C
:10431000DBFD2648264908604FF0C0604860002158
:1043200023488160C1604FF48061016100214161D7
:104330008161C16101624162FEF706FD08B1FCF7CF
:104340008DFF00BF1A48E064846300BF17484830FF
:10435000184908604FF0C0604860402115488160EE
:104360000021C1604FF480610161002141618161E0
:10437000C16101624162FEF7E7FC08B1FCF76EFF24
:1043800000BF0C48A064846300BF002211462320B4
:10439000FFF7D8F92320FFF7C1F906B010BD0000E0
:1043A00000300140443802400000024010640240E6
:1043B00064180020C41800202DE9F04104460E4680
:1043C000154694F85100012802D00220BDE8F08182
:1043D00006B10DB90120F9E7A06868B96068B0F5C9
:1043E000827F09D1042084F851002B4632463146A1
:1043F000204600F079F8E9E700BF94F85000012862
:1044000001D10220E2E7012084F8500000BF04201F
:1044100084F8510000206065A663A587E5872064C5
:104420006064A086E086A068B0F5004F0BD12068DC
:10443000006820F04000216808602068006820F4CF
:104440008040216808601F48E16C08641E48E16CE8
:10445000C8631E48E16CC8640020E16C0865E38F06
:10446000276807F10C01A26BE06CFEF7E3FC50B18A
:10447000606D40F01000606500BF002084F85000BF
:1044800000BF0120A2E72068006800F0400040283B
:1044900005D02068006840F040002168086000BF37
:1044A000002084F8500000BF2068406840F02000E1
:1044B000216848602068406840F001002168486039
:1044C000002083E71D76000839760008F57500089E
:1044D00000B502460248824201D1FCF799F800BDBE
:1044E0000C180020704700002DE9F04704460E46E6
:1044F00017461D4694F85180D4F80490B8F1010F86
:104500000AD0B9F5827F04D1A06810B9B8F1040FC0
:1045100002D00220BDE8F0870EB107B10DB901202D
:10452000F8E700BF94F85000012801D10220F1E71C
:10453000012084F8500000BF94F85100042802D0F4
:10454000052084F85100002060652663A586E58675
:10455000A763A587E5872064606494F85100042868
:1045600006D13548E16C08643448E16CC86305E065
:104570003348E16C08643348E16CC8633248E16C4D
:10458000C8640020E16C0865E38FD4F800C00CF12A
:104590000C01A26BE06CFEF74DFC50B1606D40F079
:1045A0001000606500BF002084F8500000BF0120AB
:1045B000B0E72068406840F00100216848600020B2
:1045C000A16C0864A16CC863A16CC864A16C086587
:1045D000E38ED4F800C00CF10C02216BA06CFEF746
:1045E00029FC50B1606D40F01000606500BF0020F4
:1045F00084F8500000BF01208CE72068006800F0BC
:104600004000402805D02068006840F04000216844
:10461000086000BF002084F8500000BF2068406898
:1046200040F02000216848602068406840F00200A7
:104630002168486000206DE71D7600083976000883
:104640002B760008B5760008F575000870477047AE
:1046500070B504462546681EB0F1807F01D3012065
:104660000FE0681E4FF0E02148610F214FF0FF304E
:1046700006F038F800204FF0E0218861072008613B
:10468000002070BD7047704710B50346002200BF80
:1046900093F83C00012801D1022010BD012083F8CD
:1046A0003C0000BF22F0FF00CC6840EA040222F484
:1046B00040708C6840EA040222F480604C6840EA52
:1046C000040222F400600C6840EA040222F48050E4
:1046D0000C6940EA040222F400504C6940EA0402EA
:1046E00022F48040CC6940EA04021868426400BFAA
:1046F000002083F83C0000BF00BFCEE730B5024683
:104700000B4600BF92F83C00012801D1022030BDC9
:10471000012082F83C0000BF022082F83D001068B2
:1047200044681068816824F07004186804431068B5
:104730004460184D1068A8421BD01068B0F1804F3B
:1047400017D0154D1068A84213D0144D1068A84218
:104750000FD0134D1068A8420BD0124D1068A8421C
:1047600007D0114D1068A84203D0104D1068A84220
:1047700005D121F080015868014310688160012053
:1047800082F83D0000BF002082F83C0000BF00BF5F
:10479000BDE70000000001400004004000080040A8
:1047A000000C00400004014000400140001800409F
:1047B00010B504460CB9012010BD94F83D0028B98D
:1047C000002084F83C00204600F026F8022084F8FF
:1047D0003D00211D206803F09BFD012084F8460068
:1047E00000BF84F83E0001213F20015540200155C3
:1047F0004120015500BF00BF012084F84200432042
:104800000155442001554520015500BF012084F881
:104810003D000020D0E7000038B504461949206863
:1048200088420FD100BF002000901748006840F078
:104830000100154908600846006800F0010000907A
:1048400000BF1DE011492068884219D100BF002037
:1048500000900D48001F006840F010000A49091F31
:1048600008600846006800F01000009000BF00BF1C
:10487000002211463620FEF765FF3620FEF74EFF78
:1048800038BD0000000001404438024000100040E4
:10489000014691F83D00012801D001207047022017
:1048A00081F83D000868C06840F001000B68D860DE
:1048B0001A4B086898421BD00868B0F1804F17D097
:1048C000174B0868984213D0164B086898420FD0CF
:1048D000154B086898420BD0144B0868984207D0D3
:1048E000134B0868984203D0124B086898420CD1C9
:1048F0000868806800F00702062A0CD00868006883
:1049000040F001000B68186005E00868006840F09E
:1049100001000B6818600020C0E7000000000140A3
:104920000004004000080040000C0040000401406A
:1049300000400140001800402DE9F04104460D46BA
:10494000002700BF94F83C00012802D10220BDE8F6
:10495000F081012084F83C0000BF022084F83D0073
:104960002068866826F0770626F47F4620688660F1
:104970002868502833D00CDC202850D004DC0028D4
:104980004BD0102851D149E0302849D040284CD193
:1049900039E060282DD0702807D0B0F5805F03D0B3
:1049A000B0F5005F41D10DE041E0D5E902136A683E
:1049B000206803F02EFD2068866846F077062068A0
:1049C000866034E0D5E902136A68206803F021FDAF
:1049D0002068806840F480402168886027E0EA68A9
:1049E0006968206803F006FE5021206803F01CFD72
:1049F0001DE0EA686968206803F00FFE6021206806
:104A000003F012FD13E0EA686968206803F0F2FD24
:104A10004021206803F008FD09E000BF00BF00BF8F
:104A20002968206803F000FD01E0012700BF00BFF6
:104A3000012084F83D0000BF002084F83C0000BF46
:104A4000384684E7704770B504462068C56820681A
:104A5000066906F00200022819D105F002000228BA
:104A600015D1401F216808610120207720688069E6
:104A700000F0030018B12046FFF7E4FF05E02046F0
:104A800000F0CAF8204600F07EF90020207706F0FA
:104A90000400042819D105F00400042815D1C043EE
:104AA00021680861022020772068806900F4407046
:104AB00018B12046FFF7C6FF05E0204600F0ACF82D
:104AC000204600F060F90020207706F00800082852
:104AD00019D105F00800082815D1C04321680861E4
:104AE000042020772068C06900F0030018B1204638
:104AF000FFF7A8FF05E0204600F08EF8204600F002
:104B000042F90020207706F01000102819D105F096
:104B10001000102815D1C0432168086108202077B3
:104B20002068C06900F4407018B12046FFF78AFF82
:104B300005E0204600F070F8204600F024F900203F
:104B4000207706F0010048B105F0010030B16FF0A8
:104B5000010021680861204600F09CF906F0800001
:104B6000802809D105F08000802805D1C043216844
:104B700008612046FFF786FD06F04000402809D175
:104B800005F04000402805D1C04321680861204657
:104B900000F08AF906F02000202809D105F0200055
:104BA000202805D1C043216808612046FFF76BFD2E
:104BB00070BD000010B586B00446142101A8FBF7B3
:104BC0005FFC1249206888421DD100BF0020009080
:104BD0000F48006840F001000D4908600846006871
:104BE00000F00100009000BF00BF4FF44060019052
:104BF000022002900020039004900120059001A95A
:104C00000448FEF761F906B010BD00000000014045
:104C1000303802400000024070472DE9F041044660
:104C20000D461646002700BF94F83C00012802D12B
:104C30000220BDE8F081012084F83C0000BF36B1BD
:104C4000042E1BD0082E31D00C2E5ED145E0294613
:104C5000206803F0F3FB2068806940F008002168B9
:104C600088612068806920F00400216888612068DC
:104C70008069296908432168886148E029462068DD
:104C800003F014FC2068806940F4006021688861AA
:104C90002068806920F480602168886120688069CC
:104CA000296940EA01202168886130E029462068AE
:104CB00003F03AFC2068C06940F008002168C86130
:104CC0002068C06920F004002168C8612068C069BC
:104CD000296908432168C86119E02946206803F062
:104CE0005FFC2068C06940F400602168C8612068EA
:104CF000C06920F480602168C8612068C0692969A2
:104D000040EA01202168C86101E0012700BF00BF1F
:104D100000BF002084F83C0000BF384689E710B58A
:104D200004460CB9012010BD94F83D0028B90020BC
:104D300084F83C00204600F025F8022084F83D006D
:104D4000211D206803F0E4FA012084F8460000BF2A
:104D500084F83E0001213F200155402001554120AB
:104D6000015500BF00BF012084F8420043200155D7
:104D7000442001554520015500BF012084F83D0025
:104D80000020D0E77047704770B504460D4615B94E
:104D900094F83E000BE0042D02D13F20005D06E0B8
:104DA000082D02D14020005D01E04120005D012876
:104DB00001D0012070BD1DB9022084F83E000EE034
:104DC000042D03D102213F20015508E0082D03D115
:104DD00002214020015502E002214120015501221B
:104DE0002946206803F004FB23492068884203D049
:104DF00022492068884201D1012000E0002028B12A
:104E00002068406C40F40040216848641A492068DA
:104E100088421BD02068B0F1804F17D01849206815
:104E2000884213D01749206888420FD0164920685D
:104E300088420BD011492068884207D01349206866
:104E4000884203D01249206888420CD120688068CB
:104E500000F00706062E0CD02068006840F0010024
:104E60002168086005E02068006840F001002168C2
:104E7000086000209EE7000000000140000401409F
:104E80000004004000080040000C004000400140C9
:104E90000018004010B504460248844201D10EF0CB
:104EA00036FB10BD6C1900207047704710B50446E2
:104EB0001E480088401C1D4908801D492068884202
:104EC00009D11C48C08D401C1A49C88580221A4946
:104ED0001A48FBF7D1FC1A492068884209D11948C1
:104EE000C08D401C1749C885802217491748FBF719
:104EF000C3FC17492068884209D11648C08D401C60
:104F00001449C885802214491448FBF7B5FC14499C
:104F10002068884209D11348C08D401C1149C885BA
:104F2000802211491148FBF7A7FC10BD3801002071
:104F3000004400403020002064200020441A00205B
:104F4000004C0040D82100200C220020B419002081
:104F5000005000400C23002040230020FC190020BA
:104F60000014014040240020742400208C1A0020EA
:104F70002DE9F84F0446206805682068C668206857
:104F800047694FF00009CA4605F00F09B9F1000F53
:104F90000AD105F0200038B106F0200020B12046EB
:104FA00003F091FEBDE8F88FB9F1000F7CD007F057
:104FB000010018B906F49070002875D005F00100C2
:104FC00030B106F4807018B1606C40F0010060648C
:104FD00005F0040030B107F0010018B1606C40F03A
:104FE0000200606405F0020030B107F0010018B162
:104FF000606C40F00400606405F0080048B106F001
:10500000200010B907F0010018B1606C40F00800F2
:105010006064606C002846D005F0200028B106F0DE
:10502000200010B1204603F04EFE20684069C0F316
:10503000801A606C00F0080010B9BAF1000F2DD092
:10504000204603F0E7FD2068406900F0400040285A
:1050500020D100BF00BF2168143151E8001F21F0AA
:1050600040002168143141E80002002AF3D100BF5A
:10507000E06B50B17F48E16B0865E06BFDF72CFDFC
:1050800088B1E06B016D88470DE02046FFF70EFF09
:1050900009E009E02046FFF709FF04E02046FFF79A
:1050A00005FF002060647DE7206B012878D105F0C2
:1050B0001000002874D006F010000028FAD000BFBD
:1050C00000200090206800680090206840680090F0
:1050D00000BF00BF2068406900F04000402870D148
:1050E000E06B006840681FFA80F8B8F1000F58D0F4
:1050F000A08D404555DDA4F82E80E06BC069B0F569
:10510000807F43D000BF00BF21680C3151E8001FF1
:1051100021F4807021680C3141E80002002AF3D1AB
:1051200000BF00BF00BF2168143151E8001F21F00B
:1051300001002168143141E80002002AF3D100BFC8
:1051400000BF00BF2168143151E8001F21F040006A
:105150002168143141E80002002AF3D100BF202069
:1051600084F842000020206300BF00BF21680C319A
:1051700051E8001F21F0100021680C3141E80002C5
:10518000002AF3D100BFE06BFDF750FC0220606302
:10519000A08DE28D801A81B22046FFF786FE0EE0D8
:1051A00052E0A08D40450AD1E06BC069B0F5807F28
:1051B00005D102206063A18D2046FFF776FEF1E65F
:1051C000FFE7A08DE18D401A1FFA80F8E08DD0B383
:1051D000B8F1000F37D000BF00BF21680C3151E893
:1051E000001F21F4907021680C3141E80002002A70
:1051F000F3D100BF00BF00BF2168143151E8001F88
:1052000021F001002168143141E80002002AF3D1A5
:1052100000BF202084F842000020206300BF00BFB0
:1052200021680C3151E8001F21F0100021680C3179
:1052300041E80002002AF3D100BF0220606341462A
:105240002046FFF732FEADE605F0800030B106F0F3
:10525000800018B1204603F037FFA3E605F04000B8
:1052600030B106F0400018B1204603F009FD99E680
:1052700000BF97E6758A000810B504460CB90120F6
:1052800010BDA06900B100E000BF94F8410028B94A
:10529000002084F84000204600F02AF8242084F8FA
:1052A00041002068C06820F400502168C860204692
:1052B00003F088FD2068006920F4904021680861AF
:1052C0002068406920F02A00216848612068C06891
:1052D00040F400502168C86000206064202084F8F9
:1052E000410084F842000020606300BFC8E700006E
:1052F00010B586B00446142101A8FBF7C1F8FE4999
:105300002068884277D100BF00200090FB480068E9
:1053100040F40020F94908600846006800F40020C5
:10532000009000BF00BF00BF00200090F34810387D
:10533000006840F00100F149103908600846006833
:1053400000F00100009000BF00BF03200190022088
:10535000029000200390032004900820059001A9EA
:10536000E748FDF7B1FDE748E749086040054860B8
:105370000021E5488160C1604FF480610161002136
:10538000416181614FF48071C1610021016241621C
:10539000FDF7DAFC08B1FBF761FF00BFDA48E06314
:1053A000846300BFD7483030D84908604FF00060B0
:1053B00048604021D54881600021C1604FF4806180
:1053C0000161002141618161C16101624162FDF7BA
:1053D000BBFC08B1FBF742FF00BFCC48A06384636D
:1053E00000BF002211463420FEF7ACF93420FEF74E
:1053F00095F9BAE1FFE7C649206888427ED100BF2F
:1054000000200090BD48006840F48010BB4908604F
:105410000846006800F48010009000BF00BF00BF85
:1054200000200090B5481038006840F00400B349EF
:10543000103908600846006800F00400009000BFC2
:1054400000BF00BF002000900846006840F0080040
:1054500008600846006800F00800009000BF00BF28
:1054600088140190022002900020039003200490F1
:105470000820059001A9A748FDF726FD042001900A
:105480000220029000200390032004900820059041
:1054900001A9A148FDF718FD9A4830389F490860D6
:1054A000C005486000219D488160C1604FF4806163
:1054B00001610021416181614FF48071C16100216E
:1054C00001624162FDF740FC08B1FBF7C7FE00BF77
:1054D0009248E063846300BF8A487830904908604E
:1054E0004FF00060486040218D4881600021C1601C
:1054F0004FF4806101610021416100E016E08161AB
:10550000C16101624162FDF71FFC08B1FBF7A6FE15
:1055100000BF8348A063846300BF0022114635208A
:10552000FEF710F93520FEF7F9F81EE17D492068F5
:10553000884279D100BF002000907048006840F494
:1055400000306E4908600846006800F400300090A2
:1055500000BF00BF00BF00200090684810380068FE
:1055600040F001006549103908600846006800F005
:105570000100009000BF00BF0C20019002200290AB
:1055800000200390032004900720059001A95C48A7
:10559000FDF79AFC5B484830634908604FF00060B3
:1055A0004860002160488160C1604FF48061016102
:1055B0000021416181614FF48071C161002101626C
:1055C0004162FDF7C1FB08B1FBF748FE00BF56483A
:1055D000E063846300BF4B486030544908604FF07B
:1055E000006048604021514881600021C1604FF453
:1055F00080610161002141618161C161016241629B
:10560000FDF7A2FB08B1FBF729FE00BF4748A063E6
:10561000846300BF002211462620FEF793F826205F
:10562000FEF77CF8A1E0FFE7414920688842F9D104
:1056300000BF002000903148001D006840F02000AD
:105640002E49091D08600846006800F020000090FF
:1056500000BF00BF00BF002000902848103800683D
:1056600040F004002549103908600846006800F041
:105670000400009000BF00BFC020019002200290F3
:1056800000200390032004900820059001A92148E0
:10569000FDF71AFC2748284908608005486000216A
:1056A00025488160C1604FF4806101610021416142
:1056B00081614FF48071C161002101624162FDF797
:1056C00043FB08B1FBF7CAFD00BF1B48E0638463DE
:1056D00000BF18487830194908604FF020604860D2
:1056E0004021164881600021C1604FF48061016152
:1056F00000214161816123E0004C004040380240BC
:105700000000024040600240D41A0020341B0020F8
:105710000050004000080240000C0240941B002092
:10572000F41B002000440040541C0020B41C002046
:105730000014014028640240141D0020741D002044
:10574000C16101624162FDF7FFFA08B1FBF786FD16
:1057500000BF0748A063846300BF002211464720B2
:10576000FDF7F0FF4720FDF7D9FF06B010BD0000A0
:10577000741D002070B504460D46164694F842008C
:1057800020280BD105B10EB9012070BD0020206387
:1057900032462946204603F02BFCF6E70220F4E7C8
:1057A00070477047F7B50446154694F84100202825
:1057B0003ED1019800B10DB90120FEBD01982062D3
:1057C000A584E58400206064212084F84100194804
:1057D000A16BC8631848A16B08641848A16BC86422
:1057E0000020A16B086501AE23681A1D31682B46A5
:1057F000A06BFDF71FFB30B110206064202084F8FF
:1058000041000120D9E76FF040002168086000BF27
:1058100000BF2168143151E8001F41F08000216869
:10582000143141E80002002AF3D100BF0020C4E790
:105830000220C2E7AF8B0008078C0008878A0008A7
:1058400000B503460E491868884202D10220FAF7D3
:105850007DFF0C491868884202D10420FAF776FFD0
:1058600009491868884202D10520FAF76FFF0749F5
:105870001868884202D10620FAF768FF00BD0000D0
:1058800000440040004C0040005000400014014023
:10589000704700BFFEE7000010B50248FDF72EFC80
:1058A00010BD0000B817002010B50248FDF790FCAD
:1058B00010BD0000B8170020C16AB1F52A0F02D14F
:1058C0000121C16205E0C16AB1F12A4F01D108216D
:1058D000C1627047F8B5054600200090AC6B94F8A3
:1058E0003D60394800681921B0FBF1F04FF47A713E
:1058F000B0FBF1F0C0EBC00000EB8000009000BFF7
:10590000009820B9206C40F02000206409E0009845
:10591000401E00902068006800F40070B0F5007F21
:10592000EED000BF606B10B10020616BC863A06B4C
:1059300010B10020A16BC8632068006820F480606B
:105940002168086000206085606B10B10020616BE9
:105950000865A06B10B10020A16B08652068006885
:1059600020F001002168086094F83D0060280AD109
:10597000202084F83D00002084F83E00206420466A
:10598000FDF7BAFB1EE006F02800282811D1206898
:10599000006840F00100216808602068006840F459
:1059A00080602168086000202063282084F83D0082
:1059B00005E0202084F83D00002084F83E002046C9
:1059C000FDF7F3FCF8BD00000C00002001684969F8
:1059D000C1F3C01111B100210268116170470000CC
:1059E0002DE9F041044694F83D6094F83E70102F84
:1059F00001D0402F07D1222E05D12068006820F465
:105A000000602168086006F02800282805D10020E1
:105A10002063282084F83D0010E02068406800F4EE
:105A20000060B0F5006F07D0602E05D0202084F80C
:105A30003D00002084F83E0000202063206840687C
:105A400000F40060B0F5006F40D12068406820F499
:105A5000006021684860606B90F83500012814D020
:105A60004848616B0865606BFDF736F800285BD02D
:105A70002068006820F0010021680860202084F878
:105A80003D00606B016D88474EE03E48A16B0865A4
:105A9000A06BFDF721F8002846D020684069C0F3CC
:105AA000801030B120680069616A0870606A401C2B
:105AB00060622068006820F00100216808602020F2
:105AC00084F83D00A06B016D88472DE094F83D00FF
:105AD00060281AD1202084F83D000020206420682E
